:020000040800F2
:10000000F89001209D0100085D490008D73B0008D9
:10001000C54800084D0500083D65000800000000C7
:10002000000000000000000000000000715E0008F9
:10003000EF05000800000000D15B0008735E0008B7
:10004000B7010008B7010008B7010008B7010008B0
:10005000B7010008B7010008B7010008B7010008A0
:10006000B7010008B7010008B7010008B701000890
:10007000B7010008B7010008B70100086D050008C6
:10008000B7010008B701000825040008B7010008FF
:10009000B7010008B7010008B7010008B701000860
:1000A000B7010008B7010008B7010008B701000850
:1000B000B7010008B7010008B7010008E13B0008DC
:1000C000D93B0008B7010008B7010008B7010008D4
:1000D000B7010008B7010008B7010008B701000820
:1000E000F1050008B7010008B7010008B7010008D2
:1000F000B7010008B7010008B7010008B701000800
:10010000B7010008B7010008B7010008B7010008EF
:10011000B7010008B7010008295F0008B70100080F
:100120007905000885050008B70100089105000859
:10013000B7010008B7010008B7010008B7010008BF
:10014000B7010008B7010008B7010008B7010008AF
:10015000B7010008B7010008B7010008F164000802
:10016000B7010008B7010008B7010008B70100088F
:10017000B7010008B7010008B7010008000000003F
:10018000B7010008B7010008DFF80CD000F0C6F88E
:1001900000480047E1F601080000022006488047B9
:1001A00006480047FEE7FEE7FEE7FEE7FEE7FEE75C
:1001B000FEE7FEE7FEE7FEE7195F00088901000899
:1001C0002DE9F05F0546002092469B46884606468C
:1001D000814640241BE0284641464746224600F01F
:1001E0008CF853465A46C01A914110D3114618460E
:1001F000224600F073F82D1A67EB01084F4622469D
:100200000120002100F06AF817EB00094E41201E82
:10021000A4F10104DFDC484631462A464346BDE8E6
:10022000F09F10B5431A934209D28318881803E04F
:1002300010F8011D03F8011D521EF9D210BD40EA4D
:1002400001039B0703D009E008C9121F08C0042A54
:10025000FAD203E011F8013B00F8013B521EF9D23B
:1002600010BDD2B201E000F8012B491EFBD270474D
:100270000022F6E710B513460A4604461946FFF772
:10028000F0FF204610BD421C10F8011B0029FBD1D5
:10029000801A704710B5002200E0521C835C8C5C11
:1002A000A34201D1002BF8D1D8B2E1B2401A10BD5F
:1002B00030B504460020034600E05B1C934203D2A5
:1002C000E05CCD5C401BF8D030BD034611F8012B3B
:1002D00000F8012B002AF9D118467047202A04DBC8
:1002E000203A00FA02F1002070479140C2F1200349
:1002F00020FA03F3194390407047202A04DB203A88
:1003000021FA02F00021704721FA02F3D040C2F135
:100310002002914008431946704700001CB5094867
:100320000090094801900546009C06E0E06840F016
:10033000010394E8070098471034AC42F6D3FFF766
:1003400027FF0000209B0208509B020870B58C1804
:1003500010F8015B15F0070301D110F8013B2A11D9
:1003600006D110F8012B03E010F8016B01F8016BC6
:100370005B1EF9D12B0705D40023521E0DD401F8C2
:10038000013BFAE710F8013BCB1A921C03E013F88B
:10039000015B01F8015B521EF9D5A142D8D30020C0
:1003A00070BD0146806B036C026C13F0500F07D0D8
:1003B000D20648BF00F0C1BA806BC26C0846104735
:1003C00042F40071016401688A6812F0405F01D054
:1003D00000F09EBA027E002AFAD1CA6A12F4700FA7
:1003E00002D08A685205F3D44A6822F020024A609B
:1003F000016C21F480710164016CC904E8D4016CC2
:1004000041F00101016400F083BA806B4021016476
:10041000416C41F00401416400F08FBA806B00F040
:100420008BBA0000014800F089BA00BF60150020B7
:1004300010B500680849884200D010BD414C2078B2
:100440000028FAD000F084F80020207060680028AE
:10045000F3D0BDE8104000470030014080B500F007
:1004600077F80A20BDE8804000F07EBE354800786D
:10047000704700BF7CB5154604461A48314A1378C8
:100480000BB10130FBD3304E0020012286F8500022
:1004900086F8512001903068C2680192826801920A
:1004A000019A026842F04002026003208DF80310B6
:1004B0008DF80000080A8DF80200080C8DF8010084
:1004C00000F04CF86946304604220A2302F097FBFC
:1004D00028B91D48AAB22146642302F0A3FA00F00D
:1004E00037F87CBD0000FFFFFEB5164F0446387894
:1004F00000B1FEBD012015460E4638707B6000F04D
:100500002DF8FF200DF10701052264238DF80A6004
:100510008DF80B000B208DF80700300A8DF80900CC
:10052000300C8DF80800084802F069FB20B100F09B
:100530000FF800203870FEBD0348AAB2214602F031
:10054000F5FAFEBD280200207C170020FEE700001F
:1005500005481021012200F004BF00BF024810210D
:10056000002200F0FEBE00BF00000240014800F083
:100570009FBC00BFC8160020014800F099BC00BF16
:1005800008160020014800F093BC00BFA815002009
:10059000014800F08DBC00BF68160020026840F2E0
:1005A000FF3122EA010102F0F802103A5F2A88BF07
:1005B000043181651823B2FBF3F202A39A5CC26591
:1005C000084670470006101600061016B0B50468FD
:1005D000806825684028084625F4802525606360EA
:1005E00008BF1046A06008BF0A46E260B0BD704771
:1005F0004FF4004000F0D4BD1E490022B1F90400C0
:100600008A8070471B480078704700BF19484FF434
:10061000004141801848026851623C2102F0F4BE5A
:1006200010B500F0A3FE134CA168411A0A2920D38B
:10063000A060114861880068406A411A09B2042923
:1006400004DBA28889B202EB910107E011F1040FEB
:1006500006DC4942A28889B2A2EB91016080A180A8
:1006600006484FF4006100F077FEB0FA80F04009D0
:10067000207010BDB401002074180020000C02404E
:1006800072B6FEE721494A880B889A4205D072B6B5
:100690004A880B889A4202D162B600207047B0B5F2
:1006A0004A881B4B02EB420203EB820453F82220E0
:1006B000D4E9014534C04888013000F07F0048800B
:1006C000012062B6B0BD00BF104B72B61A885988BF
:1006D000013202F07F028A4212D0F0B5D0E9004523
:1006E00080681E880A4F06EB460647F826401A80A7
:1006F00007EB8603C3E9015062B6BDE8F04000E0B5
:1007000062B6501A18BF0120704700BFC001002018
:100710005C0F002010B50B4C4FF480510022204696
:1007200000F01FFE0A2000F01FFD20464FF480510C
:10073000012200F016FE4FF49670BDE8104000F064
:1007400013BD00BF00100240FEB58DF80B000D4830
:1007500014460D460A270DF10B02702101230126D4
:10076000009701F03DFC50B9064870212A46234607
:10077000009701F03BFB0646002818BF01263046D3
:10078000FEBD00BF281700201CB500F0EFFD1D4C7A
:100790002168411A0A2907D320600DF107010220C0
:1007A0000122FFF7D1FF00B11CBD9DF8070010F03A
:1007B0000F0060718DF8070021D00DF103010320B7
:1007C0000422FFF7C1FF0028EED19DF803009DF839
:1007D00004109DF805209DF8063000F00F0041EA56
:1007E0000020E08002F00F0043EA00206081608971
:1007F000E188C0F5A0706181E080012000E0002068
:1008000020711CBD5C02002070470000F8B500227A
:10081000009290F83C20012A01D1022171E00122CE
:1008200080F83C200A680A2A1FFA82FC09D34FEAA2
:100830004C0313FA82F3A3F11E05036803F10C06BF
:1008400004E0036802EB420503F110060727346851
:10085000AF40BC4334608C68AC4035682C43346096
:100860004968062909D801EB81014C1F1F2101FAB3
:1008700004F5194651F8346F14E001EB81050C2999
:1008800008D8A5F123041F2101FA04F5194651F8EF
:10089000306F07E0A5F141041F2101FA04F5194664
:1008A00051F82C6F26EA05050CFA04F40D600D686A
:1008B0002C430C60B549A1F54174A3421ED1122A04
:1008C00004D10A6842F480020A6017E022F00103B2
:1008D000102B13D10B68102A43F400030B600DD1C9
:1008E00009490A4A0968B1FBF2F101EB81014900AB
:1008F0000091009911B100990139F9E7002180F8C0
:100900003C100846F8BD00BF2000002040420F0008
:100910000068CD49884200D0704780B5044802F095
:1009200093FC044801210170BDE88040704700BF7E
:100930002C180020340500207047704770B504461D
:10094000006806684568B10717D515F0200114D076
:10095000216CC90603D4216C41F4007121648168C3
:1009600011F0405F02D1217E002962D02046FFF7BE
:10097000CFFF20686FF012010160710714D515F0E8
:10098000800111D0216CC90603D4216C41F40051BF
:100990002164816811F4401F2CD02046FFF734FFFA
:1009A00020686FF00C010160F10718BF15F04001DD
:1009B00011D1B1060ED515F080610BD0616C6FF0CE
:1009C000200541F00201616405602046FFF7B5FF94
:1009D0002068056070BD0168C907EAD0206C40F44A
:1009E00080302064204600F0D9F820686FF00101C3
:1009F0000160DEE7816B11F4401F02D08168490578
:100A0000CBD441684905C8D4816811F0405FC4D196
:100A1000217E0029C1D1416821F080014160206C14
:100A200020F480502064206CC005B6D404F01DFE74
:100A3000B3E7C16A11F4700F02D08168490595D4FB
:100A4000416821F02001416004F0C6FE3FF58EAF01
:100A500004F00BFE8AE70000002841D070B5044680
:100A6000006C30B9204600F09BF8002084F83C0070
:100A70006064206CC00635D4206C41F202118843BA
:100A8000424902302064086820F44030086094E84D
:100A90000D0025690E6832430A60416821F48071B7
:100AA0004160416841EA05214160416821F040719F
:100AB000416041681943364B4160816821F400610F
:100AC0008160E168826811438160816821F0706112
:100AD0008160A26A81689A4206D121F040510CE0FF
:100AE0000120704701204CE011438160816821F0B2
:100AF00040518160E16A826811438160816821F020
:100B00000201816094F82020217E836843EA41013C
:100B1000816041686AB141F400611E4A41604168E8
:100B200021F460414160616A02EB41314268114346
:100B300001E021F400614160174BC16A21F47001AA
:100B4000C162E269616903EB0252C36A1A43C2627D
:100B5000826822F40072826094F83020836843EA4D
:100B600042228260826822F480628260826842EA65
:100B700081210122816000206064216C62F3010107
:100B80002164002184F83C1070BD00BF04230140A3
:100B90000100000F00E0FFFF0000F0FF70470000C1
:100BA000F0B587B0044601687B480026CDE90566AC
:100BB000814246D12549019600F55E404A6942F4DA
:100BC00080624A614A6902F480620192019A019648
:100BD0000A6842F001020A60096801F0010101910E
:100BE00003210496039108210291019902A900F0C2
:100BF000E1FA174D4FF400304FF080674FF4807CDE
:100C00004FF400514FF400624FF48063C5E90806C9
:100C10001048C5E90266C5E90432C5E9061CC5E904
:100C20000007284600F0F2F908B1FFF729FD12206D
:100C300000210022AC63A56301F02CFB122001F01F
:100C400019FB07B0F0BD00BF002201403038024060
:100C5000A8150020286402407CB5044600200190BD
:100C600094F83C00012804BF02207CBD13460A46CC
:100C70000120216884F83C008868C00710D188688A
:100C8000404D40F001008860DF480068B0FBF5F09F
:100C900000EB40000190019810B101980138F9E78C
:100CA0008868C00503D5886820F4807088608D68E6
:100CB000206CED0708D140F010002064606C40F01B
:100CC0000100606400207CBD40F20175A84300F57E
:100CD000807020644868400504D5206C012565F3C8
:100CE0000D302064206C0025294EC00444BF656C83
:100CF00025F0060565646FF0220500200D604D6843
:100D000045F080654D6084F83C001F4DA06BC564C4
:100D10001E4DC0E90F658D6845F480758D604C31BE
:100D200000F0F4F91B4A2168D2F80433DB0602D044
:100D300091421DD07CBD914211D0174B99420AD0EF
:100D4000164B9942F6D1D2F80433DB0607D002F5F0
:100D500000739942EED1D2F80423D206EAD48A680D
:100D600012F0405FE6D18A6842F080428A607CBD22
:100D7000916811F0405FDDD1916841F08041916050
:100D80007CBD00BF40420F000B0400081D0400089A
:100D9000A30300080020014000220140002101407F
:100DA000B0B5044690F83C00012804BF0220B0BD55
:100DB00021680025886820F001008860012084F8FF
:100DC0003C008868C0074FF000001CD1886820F400
:100DD00080708860A06B90F83510022907D100F070
:100DE00015F820B1216C41F04001216400E00020A1
:100DF00021684A6822F080624A6041F20112216C47
:100E000091430131216484F83C50B0BD70B5866DCA
:100E1000044600F0ABFA054694F83500022821D1CB
:100E20002068216C026822F016020260426922F0FA
:100E30008002426109B9A16C19B1016821F0080171
:100E4000016003F0BEFF20680068C0070ED000F00C
:100E50008DFA401B0628F6D320206065032084F815
:100E600035000CE080206065012008E0E06D3F2146
:100E700001FA00F0B060012084F835000020002164
:100E800084F8341070BD90F83510022909D105217D
:100E900080F835100068724603F093FF96460020F4
:100EA0007047802141650120704790F835007047F8
:100EB000F8B504460020544A08210090D4E9166091
:100EC00015683768814039420CD0226813685B0787
:100ED00008D5136823F004031360B160616D41F01D
:100EE0000101616501218140394208D022685269BF
:100EF000120604D5B160616D41F002016165042103
:100F00008140394208D022681268920704D5B16046
:100F1000616D41F00401616510218140394217D0B3
:100F200020680268120713D5B16002680168520395
:100F300006D4C90506D4016821F00801016001E06A
:100F4000080301D4216C00E0A16C09B12046884758
:100F5000E16D202000FA01F23A4233D020680368A4
:100F6000DB062FD5B26094F835300268052B15D119
:100F700022F016020260426922F080024261226C75
:100F80000AB9A26C1AB1026822F0080202603F207E
:100F90008840B06003F022FE216D2FE0016852030B
:100FA00008D4C9050AD4016821F01001016003F0DA
:100FB00015FE03E0080301D4616C00E0E16B09B1A8
:100FC00020468847606DF0B1606DC00715D00521DF
:100FD0004FF4165084F83510B5FBF0F021680A681C
:100FE00022F001020A60009A01328242009202D885
:100FF0000A68D207F7D103F0F1FDE16C19B1204680
:10100000BDE8F8400847F8BD200000202DE9F04178
:10101000044600F0ABF9ACB10546022084F8350077
:1010200004F037F9206803F0CCFE21680868C00797
:101030000BD000F09BF9401B0528F6D9032520268C
:1010400003205BE00120BDE8F081086804F1040C96
:101050002D4A9CE8E81100EA020ED4E9072043EA91
:101060000E032B4333433B4343EA08031A43636AAB
:10107000104340EA0C02042B03D1D4E90B052843AA
:1010800002430A60042B486920F0070040EA03028B
:1010900028D1D4E90A733A4323B3BCF5005F08D0E2
:1010A000BCF1000F14D1022F15D0012F0AD0002F50
:1010B00010E0032F16D8012540260120DFE807F0B5
:1010C0001E0B1E02A3F1C070B0FA80F0400904E0CC
:1010D000032F03D306D1C3F3006018B101254026C6
:1010E00001200BE020464A61FFF758FAE16D3F22EC
:1010F0000026012502FA01F181600020666584F86E
:101100003550BDE8F08100BF3F8010F0B0B504F06D
:10111000F1F927D00120A56D84F8340094F835004A
:1011200001281DD1022084F835000020606520468A
:10113000FFF74CFAE26D3F232068216C03FA02F2BC
:10114000AA60026842F01602026019B1016841F01B
:1011500008010160016841F0010101600020B0BD9B
:1011600004F097F80220B0BDB0B5044600F0FEF8D8
:1011700005460548611C007818BF044400F0F6F8E5
:10118000401BA042FAD3B0BD18000020B0F5004FBC
:1011900002D1024801210170704700BF5C15002098
:1011A00003490A68024208BF70470860FFF7EEBFB4
:1011B000143C01402DE9FC4F614A08244FF0010A1C
:1011C0004FF0000B90425F4A08BF0724830502449A
:1011D00043EA9222072A38BF1446009400250022D1
:1011E000102A08BFBDE8FC8F0F680AFA02F917EA57
:1011F000090700F09F80D1F804C0032303FA0BF61F
:101200000CF0030E6FEA0608AEF10106012E13D8AA
:101210008668D1F80CA00AFA0BF406EA08064FF02B
:10122000010A34438460CCF300144668944026EAF3
:1012300009063443446005E0BEF1030F02D14FF0CC
:10124000030E21E0C4688E6804EA080406FA0BF66F
:101250003443BEF1020FC46016D105F01C040F2305
:1012600003FA04FC6FF0030303EA520303441E6A0B
:1012700026EA0C0C0E6906FA04F444EA0C041C621B
:10128000D1F804C00CF0030E04680EFA0BF304EA64
:10129000080423431CF4403F03604BD000232C4C34
:1012A000A84622F003060193236843F48043236099
:1012B00023680F2403F48043019305F00C03224DAF
:1012C0009C40AC462E44019D224DAE46755925EA00
:1012D0000404009D05FA03F3234346F80E30DCF8BE
:1012E00008304D6843EA0704EE0258BF23EA0704BA
:1012F000164BCCF80840AE029E461B6843EA070432
:1013000058BF23EA0704CEF80040AE03DCF80430EF
:1013100043EA070458BF23EA0704CCF80440ED036E
:10132000DCF80030454643EA070458BF23EA0704C7
:10133000CCF800400BF1020B0435013250E700BF3E
:10134000001C02400000FEBF003C01400C3C01407C
:101350004438024008FCFFFF0069084018BF012024
:101360007047002A08BF090481617047014800687E
:10137000704700BFF070012070477047F8B5044611
:1013800000684769466894F83E10FA0501D5F205F1
:1013900001D4002503E06FF4807201254261BA0593
:1013A00005D5F20542BF6FF40072426102357A053D
:1013B0005DD5F2055BD5628D94F83D30D4F830C030
:1013C000202908BF002A0AD004356FF48062402922
:1013D000426101D010294AD103F0EEFF47E043F00B
:1013E0000801292937D194F83D10E26A082A04D16E
:1013F000212908D028291FD036E0202A08BF282913
:101400001AD0212930D12349E1622121216304F03E
:101410002FFB426822F4E06242606FF48062426116
:10142000026822F4806202604269120648BF0161CC
:10143000204600F0C0FE1AE01649E162416821F43E
:10144000E061416004F0A4FA0020202104F088F853
:1014500000F0C8FC0BE0282B08BFBCF1210FC2D064
:101460006FF48061043501E06FF4806141613805FB
:1014700001D5F00501D42DB9F8BD20686FF40061E5
:1014800008354161206C284320642046BDE8F840BF
:1014900002F006BC0000FFFFF8B5D0F800C004461B
:1014A000DCF80400E76A94F83E3094F83D20402BC5
:1014B00001D0102B0ED1DCF81860DCF81450E907CD
:1014C0000DD1B7F12A4F00F0C182B7F52A0F00F015
:1014D000BD8206E0216C002946D0002346E081054C
:1014E0003CD4290702D5810500F1DA80A90702D58D
:1014F000810500F14081DCF8041076074FEA0156BF
:1015000000F1C580002E00F1A18205F004026906F9
:1015100040F16E81410540F16B81002A40F0688105
:1015200094F83D00222840F09182E06A628D042AFE
:10153000C0F09C82606ADCF810100170608D013888
:101540006085606A01306062608D032840F07E82B1
:101550002068416821F480614160F8BDE06AB0F51F
:101560002A0F4CD101204FE0DCF81830DCF8145081
:10157000A90701D5810556D4E90602D5810500F1F8
:10158000A68042F0080105F00402292940F0CD8030
:10159000290624D5410522D50ABB94F83D00618D6A
:1015A000002900F05382616A11F8012BCCF8102059
:1015B000628D013A62856162618D002940F0468248
:1015C000292840F04382DCF8040020F48060CCF845
:1015D000040004F042FABDE8F84000F0ECBD002A37
:1015E00000F03482800540F13182608D002800F0E7
:1015F0002D82606A10F8011BCCF8101083E2E06ABB
:10160000B0F12A4F01D10820E06294F83E00402852
:101610002CD1216D606C00F0FE00002900F04E819D
:1016200040F001004AE1206C08B1DCF8183094F871
:101630003D0000F02800282840F0C180DCF80400BC
:1016400020F48060CCF8040004F08DFA18064FF006
:10165000180058BF0C20225A012103F0040081EA2F
:1016600090012046BDE8F840FFF787BE2069B0F53D
:10167000804F40F0B08094F83D00616C01F0FE01B5
:10168000212818BF0131CCF81010606B0DE0002E3E
:1016900000F1DC81290600F1BD8005F00405EDE0D4
:1016A000606B616CC9B2CCF8101008B1C06B38B96E
:1016B000A06B002800F0CA81C06B002800F0C68132
:1016C000DCF8040040F40060CCF80400F8BD94F8A5
:1016D0003D50DCF8040020F4E060CCF80400002069
:1016E0000090DCF814000090DCF8000040F00100ED
:1016F000CCF800000098DCF8000020F48060CCF802
:101700000000DCF80400000540F1348145F00800D9
:1017100026462A2840F00E8156F8380F016849689D
:1017200026F80E1C36F80E1C0CE169063CD5410566
:101730003AD5CABB94F83D00618D002900F086813E
:10174000616ADCF810200A7003F0C0FF616A0131A1
:101750006162618D002940F079812A2840F076810C
:101760002068416821F480614160222020632820A4
:1017700084F83D003BE194F83E30E06A226B94F837
:101780003D10222906D1216D002940F09A80402B7E
:1017900040F0978000200090DCF814000090DCF806
:1017A000180000900098F8BD002A00F04F818005D5
:1017B00040F14C81608D002840F09F8146E100207F
:1017C0000090DCF814100091DCF8181000910099DA
:1017D00084F83C00F8BD206D00286AD0206D0128F7
:1017E00040F03481606C062101EAD010F13065E0F0
:1017F000002A00F02B81800540F12881E06A618D8C
:10180000042940F00881DCF8040020F48060CCF862
:10181000040072E105F0040541052FD575BB94F86D
:101820003D0094F83E30E26A218D002940F0E480CA
:10183000212840F0E18012F5803F18BF082A40F0CF
:101840006681DCF80400202120F4E060CCF804007C
:10185000DCF8000040F40070CCF8000000202063A9
:1018600084F83D1094F83E1084F83E00402940F082
:101870005F812046BDE8F84000F057BC002D00F025
:10188000E580800540F1E280212A40F0D880E06ABE
:1018900094F83D10212940F0D980618D00297FF412
:1018A000A8AE10F5803F18BF0828CAD02028C8D09D
:1018B00030E1606C062101EAD010F030CCF8100065
:1018C000F8BD216DA9B92169B1F5404F11D10020B2
:1018D0000090DCF814000090DCF8180000900098EC
:1018E000DCF8000040F48070CCF80000206D01307E
:1018F000A0E1618D71B1618D012940F0A88020289F
:1019000018BF082840F01E81DCF8000020F4806039
:10191000CCF8000000200090DCF814000090DCF807
:10192000180000900098DCF8000040F40070CCF83B
:1019300000007EE156F8340F0168496826F80A1C59
:1019400036F80A1C19B1216C41F004012164DCF85D
:10195000041021F40061CCF80410FFF7A6FA012866
:1019600008D03068D3490165FFF78DFA10B13068AF
:10197000016D8847608DA0B120684169490703D592
:1019800003F0ECFC03F0A2FE4169490603D504F024
:10199000D7F803F0A4FE608D18B1206C40F004006D
:1019A0002064206C20B12046BDE8F84002F078B9F0
:1019B0002A2D02D1002003F023FF94F83D002828AF
:1019C00009D1BD482021E062002003F0C9FDBDE837
:1019D000F84000F007BA206B222818BF222D35D11D
:1019E00000202021206384F83D1084F83E0020462A
:1019F000BDE8F84000F0DEBB212803D0402B08BF33
:101A0000222823D1608D002861D094F83E00402820
:101A10007FF4EFAD15E0618D03295DD1DCF8041092
:101A2000022821F48061CCF8041066D0042864D028
:101A3000DCF8000020F48060CCF800005DE0402B72
:101A400004D12046BDE8F84002F0D6B9F8BD618D5A
:101A5000022972D1102800F2B1800121934A8140FD
:101A6000114200F0AB804FF48062AFE0E36A012ADC
:101A70002DD8022B2BD0002146F2A81200918C49C0
:101A80000968B1FBF2F101EB810100910099013984
:101A900000910099002964D0DCF800108905F5D484
:101AA000DCF8001021F48061CCF80010DCF80410A0
:101AB00021F4E061CCF80410616ADCF810200A70AF
:101AC00003F004FE03F0D0FF616A0131D1E0DCF8DD
:101AD000040020F48060F7E5618D02290DD1102803
:101AE00006D0022865D0042863D0012840F0A480E5
:101AF000DCF8001021F48062A2E0606ADCF81010CB
:101B00000170606A0130606203F0E9FDF8BD202ACF
:101B10003FF497AEDCF8040020F4E060CCF8040059
:101B200011202063002084F83E00202084F83D002E
:101B30002046BDE8F84000F057B9DCF8001041F449
:101B4000806146E010F5803F29D1DCF8000020F4E8
:101B50008060CCF80000DCF8040000057FF5DAAE08
:101B600022E0206C40F020002064DCF8040020F427
:101B7000E060CCF80400606ADCF81010017003F03B
:101B8000AEFD202084F83D00606A013060620020D4
:101B900084F83E002046BDE8F84000F08FB8122AD5
:101BA00030D101287FF4B0AEDCF8000020F4806072
:101BB00034E0DCF8001041F4806241E0DCF8001011
:101BC0004FF4006221F48061CCF80010DCF80010C2
:101BD0001143CCF80010DCF80410090520D5421E92
:101BE0001F2A0BD8012191402F4A114206D0DCF860
:101BF000040040F48050CCF8040011E010F5803F60
:101C0000F5D00DE01028CFD8012101FA00F02749C6
:101C10000842C9D0DCF8000040F48060CCF8000035
:101C200000200090DCF814000090DCF81800009010
:101C3000009800202065F8BDDCF8001041F4007227
:101C4000CCF80020616ADCF810200A7003F03EFD39
:101C5000626A2168531C63620969517003F036FDA2
:101C60002168626A4B6823F440734B6003F0FCFE0A
:101C7000511C6162002194F83E2084F83E10402AF5
:101C800005D121632046BDE8F84000F04DBAB0F11F
:101C9000200118BF1221083818BF084620632046CB
:101CA000BDE8F84000F09FB881800080140001007A
:101CB00020000020ED3B00080000FFFF70470000FF
:101CC00010B3F8B5044690F83D0020B903F04BFF7F
:101CD000204600F02BFA03F04AFE016841F400416F
:101CE0000160016821F40041016000F095FB636828
:101CF000384A394993423CBF48F28041C0F21E0144
:101D0000884203D20120F8BD0120704733494FF4C7
:101D10007A77B0FBF1F521684E6826F03F062E4336
:101D20004E604FF496766E43934228BFB6FBF7F5AC
:101D30006A1C0D6A25F03F052A434CF6FF750A62BE
:101D4000CA69AA43264DAB420AD85B000138B0FBF2
:101D5000F3F001306FF31F30042898BF042013E024
:101D6000A56801383DB119256B4303F08FFE0AD0F9
:101D700000F5804004E003EB430303F087FE02D04C
:101D800000F5004000E00120104304F10C06C8619A
:101D9000E0690A6822F0C0021043226A104348F248
:101DA000FF320860886890436CCE18431043886007
:101DB000C86820F0FF0028433043C86003F02FFDBF
:101DC00000202021206484F83D10206384F83E0028
:101DD000F8BD00BFA186010000093D0040420F0090
:101DE000A086010070477047704700002DE9FC4B4A
:101DF0001D4617468B4603F061FC814603F085F9CA
:101E00000DD1C84E204601221923CDF8009006F5C9
:101E1000702102F066F810B903F091F802D10220A7
:101E2000BDE8FC8B03F00FF801D103F03CFC016826
:101E3000A6F10212DDF8288021F400610160222160
:101E400003F09EFD65853546618DE26267622185FE
:101E5000E16A026842F4806211F5803F026018BFB7
:101E600001292CD103F091FA20464FF001110022F4
:101E7000434603F003F948B120680068C00544BF39
:101E80004FF4007020640120BDE8FC8B2069B0F5A0
:101E9000804F1AD14BF00100C0B2216842464B4638
:101EA00003F05CFE0028EED1208D02283BD00128F3
:101EB0003CD0002845D100210191216839E0082952
:101EC000D0D0216B1129CDD0CEE706202F46216836
:101ED00042464B4600EADB1505F1F0000861B91DEA
:101EE000204602F02EF80028CDD120685FFA8BF151
:101EF00042464B4601612046394602F022F800284E
:101F0000C1D100200022434603F0C7FD8169019141
:101F1000019903F046F803F0B1F80028ACD145F080
:101F2000F1003546B9E703F08BFC0EE003F00FFE3D
:101F300001924A6901928A690192019A03F017FBA2
:101F40000BE021680A6842F480620A600022019274
:101F50004A690192896901910199AF1C010435D048
:101F600080B203280DD8022826D001281DD103F005
:101F70002DFA00287FF487AF2068616A0069087035
:101F800021E003F023FA00287FF47DAF2068616A26
:101F90000069087003F0BDFCE0D580B2032801D1D0
:101FA00003F038FC086910700DE003F039FD0028DB
:101FB0007FF469AF03F019F803F032FD00287FF4D5
:101FC00062AF03F09CFD03F03BF8C7E7202084F8E4
:101FD0003D00002084F83C0084F83E00BDE8FC8B06
:101FE0002DE9FC471F461646894603F067FB8246EB
:101FF00003F08BF80DD14B4D204601221923CDF86B
:1020000000A005F5702101F06CFF10B902F097FFF8
:1020100002D10220BDE8FC8702F015FF01D103F0D8
:1020200042FB0168A5F10212DDF8288021F400616D
:102030000160212103F0A4FC6785618DE262666284
:102040002185E16A11F5803F18BF012919D103F0FC
:102050009CF920464FF0011100224346CDF800A024
:1020600001F03FFF38B120680068C00544BF4FF45D
:102070000070206421E02069B0F5804F07D1FE2078
:1020800013E00829E3D0216B1229E0D0E1E7062014
:1020900021684246534600EAD910F0300861A91D74
:1020A000204601F04EFF40B9FF20216800EA0900F8
:1020B0004246534603F052FD10B10120BDE8FC87B3
:1020C000002003F0EAFC806901900198208D28B37C
:1020D00020464146524601F097FFC0B903F04CFA42
:1020E000228D531E23854E69760709D51B0407D020
:1020F000437802300B616062901E208503F0EFFA96
:1021000020464146524601F0CCFE0028DED0206C2D
:102110000428D2D1206803F04FF9CEE703F0EAF8A3
:10212000BDE8FC87020001007047704701681F4846
:10213000814200D07047B0B586B000251C4C00F538
:10214000D8300095216841F002012160216801F03A
:1021500002010091042105910321CDE903511221CF
:102160000291C0210191009901A9FFF723F8009580
:1021700000210022206940F400102061206900F451
:102180000010009000981F2000F084F81F2000F03D
:1021900071F820200021002200F07CF8202000F0BF
:1021A00069F806B0BDE8B040704700BF0054004079
:1021B00030380240704770471F48034900780A686A
:1021C00010440860704700BFF070012080B50B48D4
:1021D000016841F400710160016841F480610160AF
:1021E000016841F480710160032000F079F80F204C
:1021F00000F006F800F022F8002080BD003C02400C
:1022000070B50D4E04464FF47A713078B1FBF0F0A2
:102210008B490968B1FBF0F000F01CFF01250F2C81
:1022200008D838B94FF0FF3021460022002500F0D1
:1022300031F87460284670BD1800002082B000207C
:102240000B4901904A6842F480424A604A6802F4AD
:1022500080420192019A0090086840F08050086026
:10226000086800F080500090009802B0704700BFEE
:1022700040380240002809D41C21012201EAD00183
:1022800000F01F0002FA00F0014A8850704700BFBA
:1022900000E100E0F0B5184B4FF0FF361C68C4F3C6
:1022A0000224E51E84F0070438BF002506FA05F76E
:1022B000BA43042C28BF042406FA04F4A14300F016
:1022C0000F04A940043C1143044A23440901024479
:1022D000002848BF03F10C021170F0BD00E400E0DB
:1022E00005494FF6FF030A681A4060F30A220348C3
:1022F00010430860704700BF0CED00E00000FA05D5
:10230000002852D02DE9F041404B04468846D3F8CE
:10231000000400F00700884204D283F8008402F031
:1023200057FC4BD12068810711D5410703D5996827
:1023300041F4E0519960010703D5996841F4604187
:102340009960A1689A6822F0F00211439960C00771
:102350002DD102F03DFC04D983F8008402F038FC52
:102360002CD12068410705D5E1689A6822F4E05233
:1023700011439960000706D52069996821F46041EE
:1023800041EAC00098601C4600F060F8A168204A4D
:10239000C1F30311515CC840294908601D48006819
:1023A000FFF72EFF0020BDE8F08101207047606834
:1023B000811E022905D21968890107D40120BDE8D0
:1023C000F08101281DD119688903F7D599681D4648
:1023D00021F0030108439860FEF7C8FF064641F26A
:1023E00088376068A9682B4601F00C01B1EB800FBB
:1023F000AFD0FEF7BBFF801BB842F2D90320BDE887
:10240000F08119688907D9D5E0E700BF003802409C
:10241000F01B02081C00002009480A490A4A00680B
:102420000968C1F38221515CC840704704480549DE
:10243000054A00680968C1F34231515CC8407047E1
:102440002000002008380240001C020810B5134C80
:10245000606800F00C011248082903D004291CD13F
:10246000104810BD2168236801F03F0221685B021B
:10247000C1F3881105D4A1FB00010023FDF7A0FEE4
:1024800003E008484843B0FBF2F021680222C1F3A0
:10249000014102EB4101B0FBF1F010BD04380240F4
:1024A0000024F40000127A00002864D02DE9FC41D9
:1024B00004460078C54EC0070CD0B06800F00C0090
:1024C000042840F090803068800303D560680028BD
:1024D00000F0A1802078800719D5B06810F00C0FAB
:1024E00007D002F0D1FE40F099807068400200F100
:1024F00095803068800703D5E068012840F08B8024
:102500002069316821F0F80141EAC000306020788C
:10251000000732D42078400742D4A76947B302F0BD
:10252000B3FE40F0AC80012F75D0E169706800F413
:1025300080028A426FD1216A00F03F028A426AD14A
:1025400047F6C071626A0140B1EB821F63D1A16A94
:102550004FF6FF72C903914300F44032A1F5803178
:102560008A4258D1E16A00F07060B0EB016F52D13D
:102570000020BDE8FC810120704761699448002972
:102580006DD00121C0F8801EFEF7F0FE0546706F89
:102590008007BFD4FEF7EAFE401B0228F7D9CCE043
:1025A000306C5FEAC0080AD400200190306C40F023
:1025B00080503064306C00F0805001900198854F5D
:1025C0003868C0053DD4386840F480703860FEF744
:1025D000CDFE05463868C00533D4FEF7C7FE401B64
:1025E0000228F7D9A9E002F04FFE03D1706840023B
:1025F0003FF569AF6068B0F5803F07D0B0F5A02F18
:1026000040F08580306840F480203060306840F4CD
:102610008030306085E00120BDE8FC81E068002862
:102620004CD06B4801210160FEF7A0FE05463068E2
:1026300080073FF565AFFEF799FE401B0228F6D9EB
:102640007BE0A068012805D0052848D1306F40F014
:1026500004003067306F40F00100306749E000212E
:10266000C0F8801EFEF782FE0546706F80077FF57A
:1026700051AFFEF77BFE401B0228F6D95DE05449BE
:10268000002088460866FEF771FE0546022F0AD133
:1026900047463068800153D5FEF768FE411B032092
:1026A0000229F6D965E7306880017FF561AFFEF752
:1026B0005DFE411B03200229F5D95AE74448002159
:1026C0000160FEF753FE0546306880077FF51FAFB7
:1026D000FEF74CFE411B03200229F5D949E7316F73
:1026E000002821F001013167316F21F004013167C9
:1026F00045D0FEF73BFE054641F28837306F800734
:102700004CD4FEF733FE401BB842F7D915E03168D0
:10271000002821F480313160316821F4802131605A
:1027200045D0FEF723FE0546306880033FF5D2AE64
:10273000FEF71CFE401B6428F6D90320BDE8FC818F
:102740001C341FCC0843D90340EA82104FF6FF72B5
:10275000914340EA0460A1F5803108437060012094
:102760003866FEF703FE0446306880013FF500AF8F
:10277000FEF7FCFD011B03200229F5D9F9E6FEF75F
:10278000F5FD054641F28837306F800706D5FEF724
:10279000EDFD411B0320B942F6D9EAE6B8F1000F7E
:1027A0003FF5BBAE306C20F080503064B5E6FEF7EC
:1027B000DDFD0546306880037FF58CAEFEF7D6FD63
:1027C000411B03206429F5D9D3E600BF003802403D
:1027D0000000474200700040704770B538B10446B1
:1027E000406A30B10020206104F1140007E00125A7
:1027F0004BE06068B0F5827F03D004F11C0000213B
:1028000001600025A56294F8510020B9204684F8A3
:10281000505000F03DF8022084F8510094E80F0079
:1028200001F4827102F404420668114403F4006268
:10283000114426F040060660226902F002021144AB
:10284000626902F001021144A26902F400731944A2
:10285000E36903F038031944236A03F08003194342
:10286000A36A03F4005319430160042101EA1241F1
:10287000626A02F0100211444160C16921F40061F2
:10288000C1610120656584F85100284670BD0000D3
:102890002DE9F04F87B0044602A81421FDF7E8FCAB
:1028A0002068594988424FD0D349884240F0A880D7
:1028B000002656480196416941F4805141614169C1
:1028C00001F48051019101990196016841F00101E3
:1028D0000160006800F001000190052006900320CF
:1028E000CDE9046002200390E0200290019802A943
:1028F0004748FEF75FFC484D484F4FF480684FF063
:10290000C069142105F11400C5E90079C5E9026622
:10291000C5F81080FDF7ACFC2846FEF777FB08B140
:10292000FDF7AEFEAC63E5643D4D07F14801402084
:10293000C5E9001905F1080181E8410105F114001C
:102940001421FDF795FC53E00026304F30494FF03D
:1029500005084FF003094FF0020A019638698B46CB
:1029600040F480403861386900F48040019001985B
:102970000196386840F004003860386800F00400C0
:10298000019001980196386840F00200386038687C
:1029900000F0020001900198CDF81880CDE904699B
:1029A000CDF80CA00C20029002AD01F50060294684
:1029B000FEF700FCCDE905984FF480680BF58060C8
:1029C0002946CDE903A6CDF80880FEF7F3FB114DAB
:1029D0004FF4803007F52151C5E90806C5E9001616
:1029E000402005F10801C5E90566EE6181E8410175
:1029F0002846FEF70BFB08B1FDF742FEAC63A56469
:102A000007B0BDE8F08F00BF00380040303802400A
:102A100000000240C8160020081600201064024082
:102A2000681600202DE9FC4102F0B4FC11D10E46DD
:102A300091B1174682B160681D46B0F5827F02D120
:102A4000A068002865D0FEF791FC804602F082FC69
:102A500005D10220BDE8FC810120BDE8FC810420F5
:102A6000012184F8510000206065E78784F8501048
:102A7000A787A663A0862063C4E91000E086A1684A
:102A80002068B1F5004F07D1016821F040010160D5
:102A9000016821F4804101600168490601D402F017
:102AA00090FCE0686E1C18B3E08F20B3206881684A
:102AB000C90708D1FEF75AFC002EF5D0A0EB08009C
:102AC000A842F1D330E0A16BC06802F029FCEBE72B
:102AD00020688168C90707D1FEF748FC46B1A0EB22
:102AE0000800A84204D31FE0007BA16B02F0CAFAE1
:102AF000E08F0028ECD120462946424603F0F4F846
:102B000008B12020606502F0C8FB18BF0120BDE8B5
:102B1000FC810420314632463B4602F017FC00950A
:102B200000F0F7F8BDE8FC8102F00DBA70B502F0D4
:102B300031FC17D113460A46002940D0002B3ED065
:102B4000A06858B96168B1F5827F07D104201146A9
:102B500002F0FCFBBDE8704000F0A6B994F85010FC
:102B6000012901D1022070BD0421012584F85110F2
:102B700000216165E38784F85050A387A263C4E90C
:102B80001011A186E186B0F5004F256807D12868AD
:102B900020F040002860286820F480402860E06C25
:102BA000F74EF84BC0E91361F849C0E90F1305F17E
:102BB0000C01E38FFEF7AAFA18B102F0AAFA01207D
:102BC00070BD21680868400601D402F0A1FB486886
:102BD00040F020004860002084F850004A6842F02D
:102BE00001024A6070BD00BF0168034A914208BFFC
:102BF000FDF71EBC704700BF0030014070472DE953
:102C0000FC411D4616460F460446FEF7AFFB8046C4
:102C100094F85100012804D137B12EB102F09AFB8B
:102C200005D10220BDE8FC810120BDE8FC81032024
:102C3000012184F8510000206065E68684F8501078
:102C4000A6862763A087A063C4E91000E087A16877
:102C50002068B1F5004F07D1016821F04001016003
:102C6000016841F4804101600168490601D402F025
:102C7000A8FBE2686168B2F5006F1CD109B1012EB2
:102C800001D102F01CFA6E1CE08E70B302F029FB39
:102C900008D4FEF76BFB002EF6D0A0EB0800A8428C
:102CA000F2D334E0216B31F8022BC2602163E08E55
:102CB0000138E086E8E709B1012E02D1397802F047
:102CC000B7FE6E1CE08E80B102F00BFB08D4FEF75D
:102CD0004DFB002EF6D0A0EB0800A842F2D316E080
:102CE000216B097802F0A4FEECE720462946424613
:102CF00003F024F808B120206065A06808B902F04C
:102D000015FE02F0CAFA18BF0120BDE8FC8102F0EE
:102D10001AB92DE9F8431E4615460F460446FEF73C
:102D200025FB94F85110814601295CD1002F00F059
:102D3000AE80002D00F0AB80002E00F0A88002F0E5
:102D400009FB5CD0012084F8500094F8510004285D
:102D50001CBF052084F8510000206065E687E686E8
:102D6000C4E91000A563A6872763A68620680168CA
:102D7000490601D402F025FBE268DDF82080616895
:102D8000B2F5006F3ED109B1012E01D102F097F9E1
:102D9000012608F10105E08E10B9E08F00286BD004
:102DA00002F09FFA0CD5E18E51B1012E08D1216BB2
:102DB000002631F8022BC2602163E18E0139E186E1
:102DC0008168C90706D0E18F21B1A16BC0680126D7
:102DD00002F0A6FAFEF7CAFA002DDCD0A0EB09003B
:102DE0004045D8D33FE06068B0F5827F07D102202C
:102DF000042902D1A168002998D0BDE8F8830220F7
:102E0000BDE8F88309B1012E02D1397802F010FE35
:102E1000012608F10105E08E08B9E08F60B302F0E9
:102E200060FA0ED5E18E61B1012E0AD1216B002628
:102E300009780173216B206801312163E18E01392A
:102E4000E1868168C90706D0E18F21B1A16BC06816
:102E5000012602F017F9FEF789FA002DDBD0A0EB6E
:102E600009004045D7D3002084F85000012084F8A1
:102E700051000320BDE8F883204641464A4602F04F
:102E80005DFF38B1002084F85000202060650120EB
:102E9000BDE8F883A06808B902F0A5FC02F0FDF9CE
:102EA00018BF0120BDE8F883F8B590F851500446EA
:102EB000012D36D1002958D0002A56D0002B54D0ED
:102EC00002F048FA38D001202E4E2F4F84F85000DF
:102ED00094F8510004281CBF052084F851000025F7
:102EE0006565E386E387A386A3874C4B2163A263D2
:102EF000C4E91055E06C2168C0E9133594F85130ED
:102F0000042B08BF3746224E204B08BF1E46C0E99F
:102F10000F670C31E38FFEF7F9F878B184F8505061
:102F20001FE06068B0F5827F06D10220042D02D137
:102F3000A568002DBED0F8BD0220F8BD2268216B27
:102F4000A06C536843F001035360C0E91355C0E916
:102F50000F550C32E38EFEF7D9F840B1002084F80B
:102F60005000606D40F0100060650120F8BD2168E0
:102F70000868400601D402F0CBF902F01DFEF8BD4E
:102F8000D35B0008F15B0008FD5B0008035C0008F0
:102F9000A95C000870B502F0FDF904D189B382B3D1
:102FA00002F0D8F901D1022070BD0320002384F87B
:102FB000510001206365E286A2862163A363C4E910
:102FC0001033A38784F85000E387A0682268B0F527
:102FD000004F07D1106820F040001060106840F4E6
:102FE00080401060A06C0D4E0B4D0C32C0E9136395
:102FF0000B4BC0E90F35E38EFEF788F818B102F0ED
:1030000088F8012070BD21680868400601D402F0EC
:103010007FF902F0D1FD70BDF75B0008D35B0008BB
:10302000615C000800680649884200D07047054886
:1030300040210160044800680028F7D00DF00CB969
:103040000038004018100240500E002070477047B2
:1030500070470000411E0020B0EB116F1CBF012023
:103060007047044AF023516003490B7007219060B8
:103070001160704710E000E023ED00E070477047FA
:1030800090F83C300222012B2FD010B580F83D2063
:1030900002680B68546824F070041C439368B2F112
:1030A000804F546014D0624CA24211D0D54CA24241
:1030B0000ED0604CA2420BD05F4CA24208D05F4CB5
:1030C000A24205D05E4CA24202D05E4CA24204D184
:1030D000496823F08003194391600022012180F8A0
:1030E0003C2080F83D10BDE810401046704700BFFE
:1030F00058B110B502F0EEFA03D102F041F900F038
:1031000007F802F09DFC01F061BE0120704700004D
:10311000E0B50068144988420FD0454988420BD178
:10312000002001901148016841F00201016000682F
:1031300000F00200019001988CBD00200022009058
:103140000A48016841F0100101600021006800F0A8
:103150001000009000983620FFF79CF83620BDE85C
:103160008C40FFF787B800BF001000404038024095
:1031700090F83D1001291CBF01207047022180F802
:103180003D100068B0F1804F14D02949884211D019
:103190009C4988420ED0274988420BD02649884254
:1031A00008D02649884205D02549884202D02549C1
:1031B000884204D1724601F0CFFE964603D0724693
:1031C00001F04CFE96460020704700BF90F83D107D
:1031D00001291CBF01207047022180F83D100068C2
:1031E000C168B0F1804F41F00101C16014D01049B5
:1031F000884211D0834988420ED00E4988420BD0B4
:103200000D49884208D00D49884205D0EA498842D4
:1032100002D00C49884204D1724601F09DFE9646C8
:1032200003D0724601F01AFE96460020704700BF98
:1032300000040040000C0040001800400000014065
:103240000040014000040140016841F211130A6A84
:103250001A4208D10A6A40F244431A4203D10A686A
:1032600022F001020A6002F0DFBA10B502F020FA83
:1032700052D084F83D0001204FF6777384F83C006B
:10328000206882689A4382600A68C2B1102A16D008
:10329000202A14D0302A12D0402A17D0502A1ED00B
:1032A000602A25D0B2F5005F2ED0B2F5805F30D015
:1032B000702A32D102F073F841F0770128E081687A
:1032C00021F07001114341F0070121E002F0D1FA31
:1032D0002068816841F0470121F0300118E002F0D8
:1032E000C8FA2068816841F0570121F020010FE001
:1032F0004B68CA68194602F062FF2068816841F095
:10330000670121F0100103E002F049F841F4804127
:103310008160002002F09DFA10BD0120FAE700282C
:1033200040D0F8B5044690F83D000D4618B902F0BB
:1033300027F800F039F8022044F2070284F83D0033
:103340002068816891438160211D02F0F3FD2668A9
:10335000D5E9000CD5E90223B7683843B769316A6B
:10336000B060A86942EA00204FF6FC4290434FF655
:10337000FF7227EA02021A431043EA6940EA022078
:103380002A6940EA02102A6A40EA0230B06121F05C
:10339000AA00696940EA0C0040EA0110306201F0BD
:1033A000C6FFF8BD012070470168E448814200D0A3
:1033B0007047FEB50021814A00F501300191136983
:1033C00043F004031361136903F004030193019BA9
:1033D0000091136843F008031360126802F00802BA
:1033E00000920222CDE90412CDE902214FF44051AE
:1033F0000191009901A9FDF7DDFE06B0BDE880400E
:10340000704700BF0008004070B502F088F805D092
:1034100061B9012E08BF012B19D070BD012D08BF65
:10342000012AFAD1022002F04CF90EE0012E08BF69
:10343000012DF2D1012BF0D1012AEED101F044FD92
:1034400008D02068002101F06CFE042103E0022076
:1034500002F075FA0021206801F063FE206802F096
:1034600042B9704770B504460068C5680669B1077F
:1034700010D5A9070ED56FF0020101610121217756
:103480008069800702D002F0C2F901E002F05EF824
:1034900000202077700712D5680710D520686FF0DC
:1034A0000401016102212177806910F4407F02D07C
:1034B00002F0ADF901E002F049F800202077300772
:1034C00011D528070FD520686FF00801016104218C
:1034D0002177C069800702D002F099F901E002F07B
:1034E00035F800202077F00612D5E80610D52068C0
:1034F0006FF01001016108212177C06910F4407F4D
:1035000002D002F084F901E002F020F800202077D8
:10351000F00708D0E80706D020686FF001010161CC
:10352000204600F017F9300608D5280606D5206891
:103530006FF0800101612046FFF7A0FD700608D5FD
:10354000680606D520686FF040010161204600F052
:1035500019F9B00601D5A80600D470BD20686FF037
:10356000200101612046BDE87040FFF788BD0000E2
:1035700001687648814200D07047FEB500210F4AAD
:1035800000F550400091136843F010031360126877
:1035900002F010020092CDE90311022103220291F0
:1035A000202105920191009901A9FDF703FE06B0C3
:1035B000BDE88040704700BF004001403038024005
:1035C00070470000B0B502F0CDF904BF0220B0BDD5
:1035D00002F08FF837D8DFE801F0020A12222068E3
:1035E000294602F025FD206850F8181F0EE02068DB
:1035F000294602F04DFD206850F8181F16E020689B
:10360000294602F075FD206850F81C1F41F00801A2
:103610000160016821F00401016029690FE0206860
:10362000294602F095FD206850F81C1F41F4006106
:103630000160016821F48061016029690902026862
:10364000114301600020002184F83C10B0BD58B146
:1036500010B502F03FF803D101F092FE00F006F839
:1036600002F0EEF901F0B2BB012070470068374963
:10367000884200D0704781B0002000900548016862
:1036800041F480310160006800F4803000900098BF
:1036900001B07047443802407047000010B504463E
:1036A00041B108290ED0042914BF04F1410004F1EE
:1036B0003F0009E094F83E00012812D1022084F86E
:1036C0003E0012E004F140000078012809D10220F8
:1036D000082908D0042914BF84F8410084F83F0069
:1036E00003E0012010BD84F84000206801F019FDBE
:1036F00001F04DFF19D01049884216D00F49884279
:1037000013D00F49884210D00E4988420DD00E497F
:10371000884205D00D49884207D00D49884207D11B
:10372000416C0B4A02F005FA02D101F015FC01D000
:1037300001F094FB002010BD000400400008004090
:10374000000C004000180040000001400040014013
:103750000004014000680949884200D0704780B5E4
:1037600001201BF0A1FB064801888A0801317C2A50
:1037700088BF00210180BDE88040704700100040F4
:10378000360500207047704770470000F8B50446C2
:1037900000680268C168466915074FEA82633FD036
:1037A00001F4907706F00106BF193DD0D70705D088
:1037B000CF0503D5676C47F001076764570704D549
:1037C0001EB1676C47F002076764920704D51EB10B
:1037D000626C42F004026264002D07D501F0200201
:1037E000921903D0626C42F008026264626C002A93
:1037F00000F0E580002B05D5890603D5204602F0B0
:1038000016FD20684069616C00F0400001F008017D
:10381000401847D12046FFF7B7FF00206064CEE094
:10382000002B01D58B0653D4236B012B03D1D30678
:1038300001D5CB0651D4130601D50B0611D452067F
:1038400040F1BD80490640F1BA80C16821F04001D5
:10385000C160202084F841002046BDE8F84000F017
:10386000B9B994F84110212940F0A980A168B1F5B7
:10387000805F03D12169002900F0A280216A4A1CDF
:10388000226209784160E18C0139E184090440F049
:103890009680C16821F08001C160C16841F040019B
:1038A000C160F8BD01F039FD01F03EFC49D501F0E1
:1038B0009CF9FCD1E06B002843D045490165FDF738
:1038C000E2FA00287BD0E06B016DBDE8F8400847C4
:1038D0002046BDE8F84002F0AABC00210091016832
:1038E0000091416800910099406940062ED4E08D16
:1038F000A18DE28D002A62D0814260D0081A01F0C9
:10390000C9FB21F4907142E80313002BF7D1216821
:1039100051E8051F226821F0010142E80513002B40
:10392000F5D1202184F842100021216301F0B2FB7F
:1039300021F0100142E80313002BF7D1022161634B
:103940002EE02046BDE8F840FFF71EBFE06BA28DD9
:1039500001684B6899B249B3914227D2E385C069A7
:10396000B0F5807F17D001F0C0FC20F4807001F02A
:1039700043FFF8D101F09AFCFCD101F036F9FCD1FB
:10398000202084F842000020206301F0BEFDFCD11D
:10399000E06BFDF73BFA02206063A08DE18D401AD9
:1039A00081B22046BDE8F840FFF7EDBE8A4206D15D
:1039B000C069B0F5807F02D102206063F1E7F8BDF5
:1039C000216A31F8022B6FF35F22216242605AE7CD
:1039D000E361000890B110B5044690F8410008B9C1
:1039E00002F035F801F054FE2068016921F490419D
:1039F0000161416921F02A0101F0A6BF0120704751
:103A000010B586B0044601A81421FCF731FC2068EB
:103A10004049884223D02749884249D1002026497D
:103A200000904A6942F010024A614A6902F01002AD
:103A30000092009A00900A6842F001020A60096848
:103A400001F001010091072101F0E1F84FF4C0609D
:103A50000190009801A91948FDF7ACFB28E000206F
:103A6000154900904A6942F020024A614A6902F011
:103A700020020092009A00900A6842F004020A6054
:103A8000096801F004010091082101F0C0F8C0208C
:103A90000190009801A9094800F50060FDF78AFB34
:103AA000472002210022FEF7F5FB4720FEF7E2FB4C
:103AB00006B010BD00100140303802400000024046
:103AC00010B590F84230202B06D139B132B1002424
:103AD000046302F06BFC02E0022400E001242046B3
:103AE00010BD000000680B49884218BF704710B530
:103AF00009480A490A4C02780B78A354013213068C
:103B000022EAE372027007480122BDE81040FFF785
:103B1000D7BF00BF00140140BC0D00209C700120E5
:103B2000C00D0020941900202DE9F843044690F8B8
:103B3000410020281CBF0220BDE8F8838846B1B1AF
:103B40001746A2B100201D466064212084F8410080
:103B5000FDF70CFCE7840646A784A068B0F5805FFB
:103B600001D1206930B14FF00009474604E001203F
:103B7000BDE8F8830027C146E08CB8B1204680211B
:103B800032462B4602F02BFCF0B927B117F8010B97
:103B90002168486006E039F8021B206800276FF3AF
:103BA0005F214160E08C0138E084E5E72046402158
:103BB00032462B4602F013FC202184F841100028E5
:103BC00018BF0320BDE8F883202084F841000320BB
:103BD000BDE8F8837047FEE70348FDF7CFBB00BFA1
:103BE0000148FDF759BC00BF28170020B8B50021D7
:103BF00046F2A81200912949806B0968B1FBF2F1E5
:103C000023224A4390F83D100092009A3AB1009A5C
:103C1000013A0092026812689205F6D403E0026C41
:103C200042F020020264436B0BB10022DA63846B22
:103C30000CB10022E2630268156825F48065156006
:103C40000025458503B11D650CB10023236513686C
:103C500023F00103136090F83D30602B06D101F092
:103C60000EFF0164BDE8B840FDF786BB01F02801F6
:103C700028290DD1116841F001011160116841F44A
:103C80008061116000210163282180F83D1001E06E
:103C900001F0F5FEBDE8B840FEF710B820000020A6
:103CA00010B5044690F83D1090F83E00102814BF5F
:103CB000402822290AD001F0280028280CD1002011
:103CC0002063282084F83D0020680FE02068026807
:103CD00022F40062026000E020684268120503D40A
:103CE000602901D001F0C4FE00212163416809056B
:103CF00015D494F83D1060292FD1202184F83D106F
:103D0000002121644169490601D501F027FB0168C2
:103D100021F0010101602046FDF72EFB35E04168EE
:103D200021F400614160606B90F8351001291DD1CC
:103D3000A06B23490165FDF7A6F830B320684169FF
:103D4000490601D501F00AFB016821F0010101607B
:103D5000202084F83D00A06B15E04169490601D59B
:103D600001F0EEFE2046FDF7A9FF0EE014490165C3
:103D7000FDF789F848B12168606B0A6822F00102FA
:103D80000A6001F071FE016D8847206C000704D0C5
:103D90002068416821F4E061416094F83D00216CA5
:103DA00049070BD5282809D106482021E0620020C8
:103DB00001F0D6FBBDE81040FEF714B810BD00BFFF
:103DC000ED3B00080000FFFF0268516949054FF014
:103DD00000010FD56FF4806353612022016380F8E6
:103DE0003D2080F83E1080F83C10016C41F0040149
:103DF000016401210846704790F83D10026D3AB108
:103E0000026D012A0ED10168826CD2B20A6118E0FB
:103E1000C26C816C012A10D10268C9B21161016DB6
:103E2000023110E0026D022A0FD1222914D101685B
:103E30000A6842F480720A6003E00268C1F3072155
:103E40001161016D01310165704700684169090622
:103E500044BF002101617047428D5AB1212909D127
:103E6000426A016812F8013B0B614262418D0139DF
:103E700041857047428D002AEDD12129EBD101689F
:103E80004A6822F4E0624A60734601F070FB9E4685
:103E900000212022016380F83D2080F83E10FEF7CB
:103EA00044B9F8B515460E4604464F1C20684069D3
:103EB000400744BF0020F8BD2046FFF785FF70B9DA
:103EC000002FF3D0FDF752FA401BB04201D8002E6C
:103ED000ECD1206840694007E8D401F0CBFB012019
:103EE000F8BD2DE9F047DDF82090984616460446C7
:103EF0008FB201F47F0503F1010A1820B5F5803F68
:103F000008BF142001F0ACFC18D1BAF1000FF4D0B6
:103F1000FDF72CFAA0EB0900404502D8B8F1000FDC
:103F2000EBD11820B5F5803F08BF142001F098FCB4
:103F3000E3D101F09FFB0120BDE8F0870020BDE840
:103F4000F0872DE9F0419846164604468FB2551C7D
:103F5000206841693940B94213D04169490513D4F9
:103F6000002DF5D0FDF702FAA0EB0800B04201D811
:103F7000002EEDD1206840693840B842E8D02020BA
:103F800008E00020BDE8F08101F016FA6FF48061CE
:103F90004161042001F0CFFA084320640120BDE80C
:103FA000F08170B515460E46044620684169490601
:103FB00044BF002070BD4169C90615D4FDF7D6F98C
:103FC000401BB04201D8002EEFD120684069400666
:103FD000EBD400202021206384F83D1084F83E00BB
:103FE000206C40F020000AE06FF0100141610020D9
:103FF0002021206384F83D1084F83E00206C20646A
:1040000001F0B1FD012070BDF8B515460E4604461D
:104010004F1C20684069000644BF0020F8BD2046C0
:10402000FFF7D2FE70B9002FF3D0FDF79FF9401BC8
:10403000B04201D8002EECD1206840690006E8D4D7
:1040400001F018FB0120F8BD544900200022302A5D
:1040500008BF70478B180C32C3E902009871988032
:10406000F5E700BFF8B502900020032903900FD8B0
:10407000DFE801F002040608012004E0032002E06A
:10408000042000E002208DF8040001A8FCF71CFBCE
:104090008FBD00002DE9F84FFDF768F93F4E04464B
:1040A0003068201A0A2801D2BDE8F88F3C4F3D4DF8
:1040B0004FF000084FF000094FF0000A3460B9F1EA
:1040C000300FF1D007EBCA0081882846FDF744F98C
:1040D00006EB090B9BF80410042935D8DFE801F042
:1040E000030B161D2600002852D101208BF80680F4
:1040F0008BF804004CE000F05AFC49D320BB0220AE
:104100000021CBF808408BF804002FE001281ED1D5
:1041100004208BF80400022005E0012829D10420A6
:104120008BF804000320ABF8050031E000F03FFC01
:104130002ED39BF80510012828D1022904D15FFA5B
:104140008AF00321FFF78EFF8BF8048020E0DBF874
:104150000800201AB0F57A7F1AD303200121CBF88A
:104160000C408BF8040002208BF805005FFA8AF0FF
:1041700009E0DBF80C00201AFA2809D35FFA8AF06C
:104180000221CBF80C40FFF76DFF01E08BF8041023
:1041900009F10C090AF1010A91E700BF8001002032
:1041A000D82B0208001002401CB58DF80500000A4B
:1041B000854C8DF80720120A8DF803308DF8011018
:1041C0008DF80400180A8DF806208DF80200080A00
:1041D0008DF800002A20A04701A8042100F01EF954
:1041E0002B20A0476846042100F018F92C20A04796
:1041F0001CBD00BF2DE9F04391B09B4DDFF8C49189
:10420000082632202E60C8474FF400202860642022
:10421000C84732202E60C8476B4DCF20A8473020BA
:104220006A4E03218DF843004FF44140ADF8410040
:104230000DF14100B047ED20A84765480421CDF8B5
:104240003D000DF13D00B047E820A847782003214C
:104250008DF83C008520ADF83A000DF13A00B047EA
:10426000CB20A847022005218DF839005948CDF808
:1042700035000DF13500B047F720A8472020012177
:104280004FF001088DF834000DA8B047EA20A84788
:1042900000270DF132000221ADF83270B047C02086
:1042A000A84713240DF1310001218DF83140B047AA
:1042B000C120A8478DF830400CA80121B047C52087
:1042C000A84743F21C500221ADF82E000DF12E003C
:1042D000B047C720A847C82001218DF82D000DF157
:1042E0002D00B0472120A847A8208DF82C003620AB
:1042F000A8470BA80121B047B620A8474AF20A20D8
:104300000221ADF82A000DF12A00B0473A20A84753
:10431000552001218DF829000DF12900B047F62024
:10432000A84743F201000221ADF827000DF1270054
:10433000B047B120A8474FF4D8500221ADF825006E
:104340000DF12500B047F220A8478DF8247009A888
:104350000121B0472620A8470DF1230001218DF847
:104360002380B047E020A84740F60C208DF822704B
:104370000F210F24ADF8200017480790174806902A
:104380001748059005A8B047E120A84743F23240FE
:104390000F218DF81340ADF811001248CDF80D0033
:1043A0001148CDF809001148CDF805000DF10500C0
:1043B000B0471120A8477820C8472920A84711B046
:1043C000BDE8F08369110008F14300081D440008AE
:1043D00064031281392C003433070F030E0649A7FA
:1043E0000F35310B4D07100C11083658000A0F0419
:1043F0001CB51D4C4FF4801101220A2321604FF49B
:10440000800121608DF80700C2480DF10701FEF719
:10441000F6FB40202060102020601CBD10B5124C1F
:104420000A4601464FF480000A232060B948FEF78F
:10443000E6FB4020206010BD0449B0F57A7F28BF1C
:104440004FF47A7009684863704700BF0419002070
:10445000034605484FF48002026010220260AD4816
:104460008AB21946FEF796BD181002401FB51548CE
:104470004FF080514FF00064134B4FF48032C16213
:10448000002184620124C0E9003280F82010017606
:1044900080F83010C461C0E90211C0E9041403912E
:1044A000FCF7DAFA08B1FCF7EBF807206946CDE92A
:1044B0000140032000900348FCF7A8F908B1FCF77D
:1044C000DFF81FBD6015002000220140BCB50020B0
:1044D0006D49184C01900A6842F480020A600A682B
:1044E00002F480020192019A00900868002240F4D0
:1044F000001008600868002100F400100090009887
:104500000F20A0470C4D0F20A84738200021002283
:10451000A0473820A847392000210022A047392091
:10452000A8473B2000210022A0473B202946BDE8A8
:10453000BC40084795220008752200082DE9F04F7D
:1045400087B000245048524E00220694019401681E
:1045500041F010010160016801F0100100F005FA5E
:1045600041F080010160016801F0800100F0FDF977
:1045700041F004010160016801F0040100F0F5F967
:1045800041F001010160016801F0010100F0EDF965
:1045900041F002010160016801F0020100F0E5F95B
:1045A00041F00801016041F21801006800F00800C4
:1045B00001900198354800F5805583462846B0475C
:1045C0002846402101224FF00108B04758461021EB
:1045D0000122B0470BF58069042101224846B0470B
:1045E0000820CDF81480CDE903842A4F029002AE52
:1045F00028463146B84703203146CDE9038405906B
:10460000502000F001FB10204FF0020A3146CDE9A6
:10461000038402905846CDF814A0B84704203146D0
:104620000594CDE9038402904846B8474FF4F06002
:104630003146CDE9034800F0E7FA4FF480503146A7
:10464000CDF814A0CDE9038400F0DEFA4FF4041095
:104650003146CDF8108003904FF4004000F0D4FABA
:104660004FF400603146CDE9034802900BF54060FD
:10467000B847282006210022FDF70CFE2820FDF770
:10468000F9FD07B0BDE8F08F30380240000002406D
:1046900063130008B511000810B50B480B4B0C4C08
:1046A00000214FF48042C0E90043C0E90211C0E993
:1046B0000421C0E906110162FDF702FB18B1BDE853
:1046C0001040FBF7DDBF10BD28170020801A060040
:1046D0000054004070B5064800214FF40072054EAA
:1046E00000F048F918B1BDE87040FBF7C9BF70BDD4
:1046F0007C1700200030014070B5064800214FF4BF
:104700000072054E00F036F918B1BDE87040FBF7B5
:10471000B7BF70BDD417002000380040FEB5154863
:10472000154B002142F2CF020591CDE903118161C1
:10473000C0E90031C0E9021201618021019120210C
:104740000091FEF7D5FC08B1FBF79AFF4FF48050BB
:104750000290084802A9FEF788FD08B1FBF790FF18
:1047600004486946FEF78CFC08B1FBF789FF06B0E8
:1047700080BD00BF2C1800200004004080B58CB024
:10478000134800214FF6FF72124BCDE90A11CDE913
:104790000611CDE90011C0E9021201228161C0E9D0
:1047A00000310161CDE90812CDE904120322039220
:1047B00003A9FEF7B4FD08B1FBF762FF04486946A0
:1047C000FEF75EFC08B1FBF75BFF0CB080BD00BFDD
:1047D00074180020000800401CB50D4880210D4CC5
:1047E00000225323CDE90022816140F2E731C0E984
:1047F0000043C0E90221FEF77BFC08B1FBF740FF54
:1048000003486946FEF73CFC08B1FBF739FF1CBDC5
:10481000BC1800200010004010B588B01348144B9D
:10482000002440F2E7315322CDE90644CDE90444A7
:104830008461C0E90032C0E902410461FEF707FF6C
:1048400008B1FBF71DFF60200594CDE9024400226A
:104850000190064801A9FEF7B5FE08B1FBF710FF6D
:104860000248FEF785FE08B010BD00BF0419002005
:104870000040014010B50748074C00210C224FF4BE
:10488000E13300F08AF818B1BDE81040FBF7F8BE3C
:1048900010BD00BF4C1900200010014010B50748A2
:1048A000074C00210C224FF4165300F076F818B193
:1048B000BDE81040FBF7E4BE10BD00BF9419002016
:1048C00000140140FEE70000E0B1017803290FD099
:1048D000012917D14068032814D8DFE800F0021A34
:1048E0001C1E80B505F032FEBDE8804005F056BEC6
:1048F0004068032807D0022808D0012802D10DA063
:104900001DF05EB9704710A01DF05AB904A01DF04B
:1049100057B901F099BD1AF0DDBC11F0ADB900BF77
:104920004556545F4B45595F4C4F4E47202020322F
:104930000D0000004556545F4B45595F4C4F4E47A4
:10494000202020310D0000004556545F4B45595F33
:104950004C4F4E47202020330D000000FEE720463C
:104960004FF6FF71002218F039BD019101990194B1
:10497000016870474FF4827501230224C0E90621C3
:104980000A22C0E90065C0E90211C0E90443C0E998
:104990000811C0E90A12FDF720BFC0E90043C0E9D1
:1049A0000211C0E90412C0E90611FFF713B89BF821
:1049B000061001318BF80610C9B202297047204653
:1049C00009210022002314F0EDBFC868897E01F0A0
:1049D0003F0101EB4101890014F0DABDE068006895
:1049E00017F06CBA4DF808ED404608F0FBFF0028C0
:1049F0005DF808EB7047081A01B280EAE132A2EBD9
:104A0000E1310FFA89F289EAE23389B2A3EBE232AB
:104A100092B29142704720464FF48031704702466F
:104A20003846314603F0A3B9BBF81600BBF81A109C
:104A3000728B009CB146081A0221013000B290FB33
:104A4000F1F0F18A511A6FF00102013109B291FBC4
:104A5000F2F1704700EB8000502101EB4000A021F3
:104A600090FBF1F070472A4619F05ABA096801EB39
:104A70008002526841F82020013070470268E968DE
:104A8000B2F90030B2F902205A43914270471088BF
:104A90000144ADF85810BDF85C100844BDF85A1038
:104AA000ADF85C00508822460144ADF85A10BDF8BC
:104AB0005E100844704721EA000019996FF30F0354
:104AC00008447047011BADF8E81029190844531831
:104AD000ADF8EC00101BADF8EE30ADF8EA00704711
:104AE000ADF86C00BDF86800ADF8700002208DF8DC
:104AF000580012AF7047BBF80010BBF80420511AE1
:104B0000013109B2081A022190FBF1F0BDF8B01092
:104B100008447047594622464346009048460CF0E8
:104B200045BAB8F81500C0F38A000330800800FBCE
:104B300005F170478DF844002046CDE900BA07F032
:104B4000A3BA36F8140F7188F288511A01F10109DD
:104B5000B188081A013005907047686DEE685047BB
:104B600079890144B1FBF5F202FB1511226832F894
:104B7000111026F8101001307047029C584631463B
:104B8000224607F059BE002311F0A5BD0446D0E926
:104B90000B204FF4806500210023009514F006BC23
:104BA00004460068083014F01BBC31463A464346C0
:104BB0005047B2FA82F4C4F11A03DA4082F02003BB
:104BC000C4F11902704730461A212A4610F0D0BFAE
:104BD000D3F8000400F0070040457047002084F837
:104BE0003400012084F835007047206850E8050F34
:104BF000216820F0400041E80502002A7047204665
:104C00007F21002218F075BB029028463847059195
:104C10000321CDE9030102200290704764212D2277
:104C2000054618F031BA8A7E02F03F0202EB4202DA
:104C300000EB820270470F2110F09ABF4DF808ED8B
:104C400008F0D0FE00285DF808EB70470222002330
:104C5000091A013109B291FBF2F141F6FF720C1809
:104C6000601C01B248467047ADF88C10618B01445E
:104C7000ADF89210E18A081A70473046294616F0BE
:104C8000EEBBBBF81400BBF81810328B009CB14689
:104C9000081A0221013000B290FBF1F0B18A511ADA
:104CA0006FF00102013109B291FBF2F1704700206F
:104CB0000BF0DCBA20F47C71103000F47C725018D8
:104CC00051086084E06814F063BC20464FF6FF7121
:104CD000002218F083BB5A3000B21AF025BB081A24
:104CE000BDF87010013000B21590BDF86C00081AC4
:104CF00001307047BDF8EA0008F101080130ADF855
:104D0000EA00BDF8EE000130ADF8EE0070471198F2
:104D1000ADF87250ADF86E5000287047707FB6F94C
:104D20001430A9EB0A012246009007EB0A001AF0A2
:104D300080BB4DF808ED81EA5221C9B21AF068FD36
:104D40000AF808005DF808EB7047B8F81500C0F3E2
:104D50008A000130400800FB05F17047002116F081
:104D60007EBC686DEE6803215047B8F808004146E4
:104D7000ADF8A400ADF8EC0020460AF0B0BF4846FC
:104D80002146434604F0B0BF30462A461BF01ABA0B
:104D9000216AA26A521A504301EBA020BCBD2946E9
:104DA0003A46534630470698DDE90732A7EB0A0139
:104DB000009030461AF03DBB29682046002201F0E1
:104DC00045BD016821F0010101607047012084F8B0
:104DD000460084F83E0084F83F0084F8400084F8E0
:104DE000410084F8420084F8430084F8440084F8C9
:104DF000450084F83D00002010BD40464FF480512E
:104E000016F0F4BD384632462B46484700244EF291
:104E100001094EF20106804670473A4601F039BC5E
:104E2000ADF87210099ABDF89E10494409B28A4241
:104E30007047686DEE6801215047204616F0C4BAED
:104E4000204617F079BD012084F83C0020680168F5
:104E5000C90770472046642100F070BF016841F027
:104E6000010101607047016851E8051F026821F0E7
:104E7000010142E80513002B704738464FF40071DA
:104E800016F0B4BDCDF808805846009C15F0A5BDBD
:104E9000284615F08FBE0C9A00284FF6A67670476C
:104EA00041460DF0D0BB686DEE6802215047304698
:104EB0004FF4C021224616F023BED8F83000D8F8AF
:104EC0003C101190149170470220002984F83E0094
:104ED00084F83F0084F8420084F84300704701687A
:104EE00051E8031F026821F0100142E80313002B70
:104EF000704738464FF4807116F078BDBBF8160045
:104F0000BBF81A10009CB146081A7047284615F0E5
:104F1000B7BEADF8600058461AF006BABDF9641085
:104F200050463A4623460BF0D7BF686DEE680A211B
:104F300050472A4610F01CBE204608F0B7BF94F830
:104F40003C0001287047002084F85000012084F8BC
:104F500051000320BDE8FC81816801F007010629AA
:104F60007047BBF81400BBF81810009CB146081A33
:104F70007047BDF964105046224633460BF0ACBF73
:104F8000E868042200F1A001204630470A99304623
:104F900001F07FBB94F8480000F0F70084F8480067
:104FA0007047016841F48071016020464FF00111A3
:104FB00070472068416821F0200141607047084433
:104FC000BBF81A100190BBF81600081A70470D982C
:104FD0000DF039BB0022E86800F118012046304787
:104FE000B5F88200400014F0FBB92068616A0268DD
:104FF00022F48062026000690870606A01306062B9
:10500000208D01382085608D013860857047084407
:10501000BBF818100290BBF81400081A7047BDF9CD
:105020006A002CB28442704700F1200400200BF08B
:105030001DB9B1F96C20B1F97010801A891A704746
:10504000606A01306062208D01382085618D0139F0
:105050006185704721F4C041B1F5FA6F7047BDF921
:105060005C103AB2284633460BF036BF122018F0D7
:1050700079BAB4F87C10204608F0CCBCCDF800908A
:10508000FEF72FBF0870A06B0130A063E08F0138DE
:10509000E0877047216851E8031F2268704742F299
:1050A000D1750646401BB0FA80F07047109F5046FD
:1050B00031463A4614F096BA149802F09DBD37F87E
:1050C000021BC1602763E08E0138E08670472046EE
:1050D00016F049BA504631464A4614F083BA204683
:1050E0001B213A4610F044BD846B0546FCF73EB9DF
:1050F000204616F094BAADF86C00584409B200B2DC
:1051000091427047204615F027BE94F83D002028B4
:105110007047002084F85000606D40F0100060651A
:105120007047012200F074BF206840694006704754
:1051300081B22046002218F0D7B891FBF2F3BDEE01
:10514000C11A03FB12117047204607F027BCD9F89B
:105150000400102116F04ABC521A5144013212B216
:10516000101A022290FBF2F008447047A068006811
:1051700050F8260016F014BF3046294616F007B93D
:10518000618B0144ADF80610218B0144ADF8041089
:10519000E18A091AADF80210A18A081A704700EBDB
:1051A0008000502101EB40006FF09F0190FBF1F077
:1051B0007047A5EB0B00B0FA80F04009704730460D
:1051C0004FF4002116F012BC48460CF0E9BCBDF8C3
:1051D0006E00BDF87210704700210BF0F9BCBDF9EC
:1051E0003810219832B223460BF076BEBBF800107F
:1051F0000844BBF80410081ABDF8B0100844013088
:1052000070472946324643464847B8F81500C0F370
:105210008A000730C00800FB05F17047284614F0EB
:105220000DB9204614F039BE2046002116F0A8B969
:1052300052F80C1C022332F8042C009070479DF8A1
:10524000561030462A461AF0EEBF0446D0E90B202D
:105250004FF4806100230091002114F0A7B850465C
:1052600031463A46434603F09AB99DF856201191CB
:105270000F99002D02F0FE008DF856000D98704732
:1052800048464FF440317047B06800F00C000828E1
:105290007047002084F834007047012084F85100E2
:1052A000002084F85000606D00287047206850E8A6
:1052B000050F216820F0010041E80502002A70472F
:1052C000013001FA80F19142704728465946324632
:1052D00014F01ABA9DF8AD2042F010028DF8AD20FE
:1052E00070472068816889077047206850E8030F7D
:1052F000216870472068016841F400710160202036
:1053000084F83D00002084F83C0084F83E0070479B
:10531000086840F0400008607047204600F066BF13
:1053200021F8020BA163E08F0138E087704701206C
:1053300084F8460084F83E0084F83F0084F8420078
:1053400084F8430084F83D000020704784F8510041
:105350002046704794F8500001287047616A006940
:105360000870616A2068013161627047416821F00C
:10537000030141607047024628680068C005704715
:10538000002084F83C0020467047016841F4807199
:1053900001607047044690F8510001287047D1E938
:1053A0000123C9681A4342EA0121826822F47F423C
:1053B0001143816081687047016841F400710160A8
:1053C0007047016841F04001016070472046414646
:1053D0004A46FEF7E6BD00226FF0090314F0E2BA78
:1053E000204602F0EDBBD9E90020042110F0C0BB3B
:1053F000B8683146006850F82B80404616F0FABA7B
:10540000401AB0FA80F0400970470D46064616F083
:1054100026B9B14690FBF1F0F18A511A6FF0010202
:105420004044013109B291FBF2F1704728464FF434
:10543000803170470E4619461C461546074607F050
:10544000D4BA20460021002217F04EBF014601F0D9
:1054500020B9C8B240EA032070472146ADF83E604B
:10546000ADF83A6014F0A5B9707FB6F9143049462A
:1054700022460090504619F0DCBF98F8140000F066
:105480001F00704768780A210228704720460021D3
:1054900016F0D2B8074688F802000021C8F80C6060
:1054A0007047284611F017B9009509F02BBAADF8EE
:1054B000007001F0CBB90E9920202A464346504790
:1054C000A08ABDF82810BDF82A200144ADF82810A4
:1054D000E18A0A44ADF82A20BDF82C201044ADF82A
:1054E0002C00BDF82E0008447047304652465B46FB
:1054F0001AF0F1BD044690F83400012870470120ED
:1055000084F85100606D00287047206850E8030F50
:10551000216820F0100041E80302002A704790F84B
:105520003E6090F83F5090F84230044690F8432097
:1055300001200429704700212022216384F83D20A6
:1055400084F83E1084F83C10216C70474DF808ED4B
:105550002046FEF735F820465DF808EBFEF79CB8CC
:10556000206384F83D1084F83E00204670470A68A6
:1055700042F400720A607047606A2168024612F8BD
:10558000013B0B61638D013B63856262704720685C
:10559000B0F1804F7047E86813F00AB90246284618
:1055A0000E2110F0E5BAD9E90020082110F0E0BA88
:1055B0000190204403940090384615F0B7B990FB51
:1055C000F1F00022284401B22046704702463046DE
:1055D000294602F0CCBB204615F0E8BE41460068E3
:1055E00050F82470384616F005BA204603210022F0
:1055F00017F0D6BE05EBD0303588ADF862000F98B5
:105600005A3000B27047BDF86C00081A013000B281
:10561000002C1890704711444618BDF86400ADF88E
:105620006C00BDF86800ADF8700002208DF85800DD
:105630007047ADF8A680ADF85800BDF8B0007047CF
:10564000002311F048B8686DEC68504700930023C0
:1056500013F0ACBEBDF85E00BDF86210081A013050
:1056600001B2BDF95A0088427047206C40F0010039
:105670002064704700202021206384F83D1084F8C6
:105680003E0084F83C00206C40F02000206470470D
:10569000242084F841002068C16821F40051C160D1
:1056A000204600F01FBE016841F001010160704713
:1056B00090F83C2004460220012A70470446FBF77C
:1056C00055BE84F83F0084F843007047618D01396E
:1056D00061857047044690F83D0000287047608D52
:1056E000013860857047016841F0010101600020C8
:1056F00070BD0D4601204FEAB201032984F83C0039
:10570000704781B22046002209F036B9D9E900205D
:10571000072110F02DBA02230144101A009A01301B
:1057200000B2801A70473A4610F022BA019902205E
:105730006FF0010291FBF0F00FFA88F191FBF2F1AA
:105740000844704700EB8000502101EB4000A0218D
:1057500090FBF1F77047BBF8082015F080BF20469A
:105760000321002217F026BE10FB07F005EBD03016
:105770007588ADF864000D9870474DF808EDDBB200
:10578000C0B289B240EA03200AF0FCFB014680B2B5
:10579000030A5DF808EB70470E9A00F0A5BFE868B1
:1057A0004FF4803200F108012046304720464FF484
:1057B000003116F085B84180C1881144C18070471E
:1057C000204615F05AB902F0FC020F900D910232FA
:1057D0008DF8562002467047206C20F480702064BB
:1057E000206CC0047047002000902068C1680091C0
:1057F000806800900098704741E80302002A7047D3
:105800002063282084F83D002046FCF7D3BC2046C6
:10581000FDF727BE086820F48060086070470868BC
:1058200040F0010008607047012180F83D10002021
:1058300070470262B8428C68D1F800C04568704772
:1058400021680A6822F480620A600A6842F40062F1
:105850007047002184F83C10012184F83D10704706
:10586000216808583840C01BB0FA80F04009B042A7
:1058700070474B68CA68194600F090BC204600216A
:1058800000227047384611F02BBA484641F6FF72A5
:10589000002306F037BB20462946324615F074BA7D
:1058A000029902206FF0010291FBF0F00FFA8BF1E8
:1058B00091FBF2F17047002100224FF0FF3300947A
:1058C00008F032BC20460321002217F06EBD0BFB0E
:1058D00000F004EBD0302C88ADF8620070476FF315
:1058E0000F01194470470E9A00F062BF68781021CA
:1058F00002287047204615F070B8204616F070B8A0
:10590000BDF92E00696A079ABDF9303041F6FF767D
:105910007047608D01386085606A2168421C208D67
:105920006262013820854B695B0770470020019057
:105930002068C1680191806801900198704784F8DF
:105940003E0084F8420070474161C16841F4005153
:10595000C16000202021606484F8411084F8421066
:10596000606310BD044690F83C0001287047242075
:1059700084F83D002068016821F001010160704752
:1059800084F83D10102184F83E10002121647047F6
:105990006FF480614161016821F4806101607047AA
:1059A000D9F80400202114F05CBB00686422407E1A
:1059B000C0F16401002070470221328B90FBF1F0AE
:1059C000B18A511A6FF00102484470470020ABF8C9
:1059D00000100CB20AF04ABC20460321002217F046
:1059E000D5BC00210BF0F4B80498BDF966108068AE
:1059F000A0EB410030F81700ADF84800704700F107
:105A0000280120463047B4F884000F90204614F057
:105A1000D0BF284610F0A5B842F2D1718842704735
:105A20002046394600224346CDF80090FEF759BA89
:105A30000173206B01302063E08E0138E0867047EF
:105A40000220211D84F83D00206800F073BA002078
:105A500084F840002046FDF7D3BF21202063282092
:105A600084F83D0020467047202184F83D1070479F
:105A7000202184F83D10002184F83E107047202139
:105A800080F83D10002180F83E107047B0FBF3F025
:105A900001306FF31F300028704701902068416982
:105AA00001917047C6F164014843642190FBF1F015
:105AB0007047009C584614F090BF0C46054617F0FE
:105AC00013BD0168C9688A6922F002028A617047C1
:105AD00004EBD030ADF860007047504622460BF022
